{
  "contractName": "HelloWorld",
  "abi": [
    {
      "inputs": [],
      "name": "number",
      "outputs": [
        {
          "internalType": "uint256",
          "name": "",
          "type": "uint256"
        }
      ],
      "stateMutability": "view",
      "type": "function"
    },
    {
      "inputs": [
        {
          "internalType": "uint256",
          "name": "_number",
          "type": "uint256"
        }
      ],
      "name": "setInt",
      "outputs": [],
      "stateMutability": "nonpayable",
      "type": "function"
    }
  ],
  "bytecode": "0x60806040525f8055348015610012575f80fd5b50610126806100205f395ff3fe6080604052348015600e575f80fd5b50600436106030575f3560e01c8063444203111460345780638381f58a14604c575b5f80fd5b604a60048036038101906046919060a6565b6066565b005b6052606f565b604051605d919060d9565b60405180910390f35b805f8190555050565b5f5481565b5f80fd5b5f819050919050565b6088816078565b81146091575f80fd5b50565b5f8135905060a0816081565b92915050565b5f6020828403121560b85760b76074565b5b5f60c3848285016094565b91505092915050565b60d3816078565b82525050565b5f60208201905060ea5f83018460cc565b9291505056fea2646970667358221220016e04924d83f32738a429df115dba48ebc34b0ebb2f32a077905d44e125037864736f6c63430008150033",
  "immutableReferences": {},
  "source": "pragma solidity ^0.8.7;\r\n\r\ncontract HelloWorld {\r\n    // string public message = \"Hello, World!\";\r\n    \r\n    // function update(string memory newMessage) public {\r\n    //     message = newMessage;\r\n    // }\r\n    uint public number = 0;\r\n\r\n    function setInt(uint _number)public{\r\n        number = _number;\r\n    }\r\n\r\n}",
  "sourcePath": "C:\\Users\\Thalles\\OneDrive\\Desktop\\blockchain\\contracts\\HelloWorld.sol",
  "compiler": {
    "name": "solc",
    "version": "0.8.21+commit.d9974bed.Emscripten.clang"
  },
  "schemaVersion": "3.4.16",
  "updatedAt": "2025-03-23T03:47:03.951Z",
  "devdoc": {
    "kind": "dev",
    "methods": {},
    "version": 1
  },
  "userdoc": {
    "kind": "user",
    "methods": {},
    "version": 1
  }
}